:0400000026C0FECF49
:10000400FDCFFCCFFBCFFACFF9CFF8CF4DC0F6CF61
:10001400F5CFF4CFF3CFF2CFF1CFF0CFEFCFEECFD8
:10002400EDCF25352E3266002D4E414E000080C0A6
:1000340001002D4E414E00494E4600000200700161
:1000440032000100740134000000F894EE27ECBB88
:10005400F1E0FBBFEBBFE5BFF8E1F1BDE1BD8DE031
:10006400A2E0BB27ED938A95E9F780E094E0A0E64F
:10007400ED930197E9F7E0E4F0E08591959100971D
:1000840061F0A591B59105901590BF01F00105901F
:100094000D920197E1F7FB01F0CFEFE5EDBFE4E04E
:1000A400EEBFC0E6D1E095C06A937A93AA93BA935F
:1000B400EA93FA93EFB7EA93A4E6B1E0F1D7EF5FDE
:1000C400FF4F6F4F7F4FF1D7E991EFBFF991E9915E
:1000D400B991A991799169911895AC9A85E38A951A
:1000E400F1F7AC989D9BFECFE0E0F0E0FDBDECBDE8
:1000F400E0936401E0936501E0936601E093670196
:100104009D99FECFECB5FDB566277727E093600196
:10011400F09361016093620170936301E091640163
:10012400F0916501609166017091670107D6A0E0C6
:10013400BFEF8FE797E463D48BD67F936F93FF93DE
:10014400EF93E0916001F09161016091620170911F
:100154006301F4D55AD47CD6AF91BF918F919F910E
:1001640027D6E0936801F093690160936A01709364
:100174006B01A0916801B091690180916A0190912D
:100184006B01E2EAF5E468EE71E4B0D6DF01CB017D
:10019400E0E0F0E060E070E4A9D6E0936C01F09355
:1001A4006D0160936E0170936F01E6E2F0E032D46A
:1001B400E0916801F091690160916A0170916B01AD
:1001C40083D784E0ABD2269680EB94E00197F1F7D5
:1001D4000895E0E0E8BBE7BBE0E2E5BBE0E1E4BBB7
:1001E400E0E0E2BBE1BBE3BFE2BFEFBDE2E0EEBDB6
:1001F400E0E0EDBDECBDE7BDE6BDEBBDEABDE9BDAC
:10020400E8BDE2BDE5BDE4BDE3BDE5BFE4E0E9BFB3
:10021400E0E0EBB9E8E0EAB9E6E8E0BDE0E0E0BD43
:10022400E7E6E9B9E0E8E8B9E0E0E0BFE6B9EDB94E
:10023400E6BFE0E1EA93D3D2C2D278944EDFE4E69B
:10024400F0E0EBD3FBCFFFCF5D9BFECFE881ECB9B1
:10025400ECC2EA81EA93F8DFA881B981E0D323965E
:100264000895E3D3E0E8EA83EFE3EB8345D7E2D3F1
:10027400EF3FAFEFFA0739F4E885F985CBD3ECE229
:10028400F0E0DBD37CC0EF3FAFE7FA0731F4D7D31C
:10029400C1D3EDE2F0E0D1D372C0AB85A73010F04A
:1002A400E6E0EB871B85CED311F0D0D3FCCFDCD3B3
:1002B4001DD719F430E0CAD31CC03B85DAD309F04A
:1002C40008F407C0C3D3D5D318F0DDD3E1D3FBCFF3
:1002D40008C0CFD328F4D7D3E6D3EBD33150F9CF2A
:1002E400B5D3C2D392D364D5E4D3C3D310F0CBD364
:1002F400CFD310E0EB85E11710F1E0D3E4D37FD343
:1003040057D5E2D6E3D2EC83FD836E837F83BBD3E0
:10031400EDD5DBD40E2FDCD3E2D3FF276627772776
:100324000DD5CCD395D5AFD3D4D63BD5C2D3E12FFD
:100334001F5FE030F9F6CCD3EEE2EC93DBCFD4D3FD
:100344003197AA85A08330302CF43195A885B985DE
:10035400EDE203C0A885B985EBE2EC93C5D3C4D321
:10036400C8D34ED6E05DDB01EC93BED3C2D372D6C4
:10037400E05DDB01EC93A885B985E0E0EC93C3D69E
:1003840060960895EF976197B5D610E0FE01E85A9C
:10039400FF4F0190F081E02DE887F987FE01EA5ACA
:1003A400FF4F0190F081E02DEE83FF83A7D3E0E0BF
:1003B400F0E0ED93FC93DE01A45ABF4F30D33197A4
:1003C400E4912E2FE03009F4A3C1E12FE03031F4A1
:1003D400253211F411E001C094D399C1E130B9F48C
:1003E400253211F48ED392C112E0E0E0ED8B00E0EF
:1003F4002D3211F401E08BC12B3219F4EBE2ED8BB9
:1004040086C1203219F4E0E2ED8B81C102C0E230F2
:1004140039F450E013E0203311F4006878C102C0CD
:10042400E33091F4203310F02A3308F007C0AAE037
:100434005A9F502DE22FE0535E0F69C140E02E32E7
:1004440011F414E064C10FC0E43099F4203310F0C7
:100454002A3308F008C00062AAE04A9F402DE22F28
:10046400E0534E0F54C12C3619F4026015E04FC10D
:1004740003C0E53009F04BC1E22FE33639F449D328
:100484004FD347D3A481AA9352D340C1E53411F08A
:10049400E53609F402C0E636A1F550D354D3FAD5B3
:1004A40059D35DD3AD85AA2322F0AD89AB3231F0A7
:1004B40011C057D3D7D34ED3EDE2ED8B07FF04C061
:1004C400ED89EA9334D306C0B5D231964FD3319730
:1004D400AD89A08305FF46E0263641F442D3F4D526
:1004E4004A93EB89FC8996D201D208C03AD3ECD561
:1004F4004A932A93EC89FD898DD2B3DE1FD339D375
:1005040016C0E33721F42BD339D333D309C0E037F2
:1005140099F425D333D38ED27DD29ED11E2F086079
:100524000F77403011F0411708F001C0142F40E05C
:10053400E0E0EC8B30E062C0E43611F0E93611F40F
:10054400046002C0E53791F4EAE0EC8B01FF07C0D8
:10055400E0E0FAEC6AE97BE315D31AE01FC0E0E1BE
:10056400F7E260E070E00ED315E018C0E83511F44E
:10057400086003C0E83709F0C9C0E0E1EC8B01FF73
:1005840007C0E0E0F0E060E070E1FCD218E006C0F3
:10059400E0E0F0E160E070E0F5D214E0403011F00A
:1005A4000F7701C041E001FF05C0D9D2CCD2149627
:1005B40071D50EC002FF06C0D2D2C5D2149666D53C
:1005C4000CD506C0CCD2BFD2149660D56627772747
:1005D400EA87FB876C877D8702FF0FC0AD85AA235E
:1005E4002AF4BFD2ECD4B6D2EDE2ED8BED89E03043
:1005F40019F01F5F4F5F01C00B7F342F00FD13C044
:10060400151710F4351708F00EC007FF08C002FFD5
:1006140004C00B7F2D89115001C020E301C020E2EA
:1006240070D25150EDCF141778F4006102FF05C069
:10063400AED209F0515011504150BCD278D2503052
:1006440009F051504150EFCF312FEC89E030A1F443
:10065400303089F003FF04C0EDD1259187D205C065
:10066400AE85BF852D91AE87BF874BD2503009F040
:1006740051503150EDCF41C0A0D2C7D42E2F2A30D3
:1006840030F003FF02C0295C01C0295A01C0205D7B
:1006940004FD1DC0213348F499D2A130E0E0BE0727
:1006A400E0E08E07E0E09E0709F40BC0431740F436
:1006B400531710F000FF01C00EC020E207FF07C06F
:1006C40020E3006102FF03C062D209F0515019D245
:1006D400503009F05150315070D2C8D43BD2EC891B
:1006E40075D2FF276627772790D44CD2E889F989F9
:1006F4006A897B89FBD409F0BFCF00FF07C0503063
:1007040029F05150E0E2EA9312D2F9CF10E053CE2F
:10071400F5D1BCD4F6D4EF966F960895FF92F82ED7
:100724002697ECD4DE01149646D48D01E0E0EC83E8
:10073400ED83EE83EF83DE0118963DD4A7D46AD10E
:100744001A930A93EBE2F1E065D1FE01389662D187
:1007540019DEDBD42896FF900895E881E07111F04A
:10076400949A01C09498E881E07211F0959A01C0BE
:100774009598E881E07411F0969A01C09698E88102
:10078400E07811F0979A01C097988BE08A95F1F779
:10079400929A8BE18A95F1F792988BE18A95F1F719
:1007A40044C0E881EA93D9DFE881E295E883E881EF
:1007B400EA93D3DF88EC90E00197F1F736C0E2E0EA
:1007C4000AD2E3E0F0E029D1ECE005D2E1E003D283
:1007D400E3E0F0E022D1E0E04E2E5E2E08958C9A04
:1007E4008D9A8E9A8F9A8A9A889A899A92989098D2
:1007F40091987880E881E058E0937201E881E054B0
:10080400E0937301E4E1F0E008D1D4D1E6D1E5D17D
:10081400EAD1E0E2EA93E7D1E8E2DDD1E4E0DBD13A
:10082400E5E8D9D1E6E0D7D1CADF21960895E99168
:10083400F991A991B991CD0105900D920020E1F7AC
:10084400FC010895A991B991EE27FF276D916623C4
:1008540011F03196FBCF0895AA27BB27E991F991AE
:100864000590002011F01196FBCFFD0108957B81C6
:100874006A81F981E88177FB770F67FD7160972FB3
:100884009E5781F078F0983190F4AA27BB278827E7
:1008940008948795B795A7959A95D1F7EA23FB23F2
:1008A400682305C0E8947727EE27FF2766276F772C
:1008B400769508F4606877F9A991B991899199912D
:1008C400EA17FB076807790797FB089592D1FCD3D1
:1008D400CEDFF5D311F48DD107C0EEF78AD1A0E0B5
:1008E400B0E080E89FE35DD2249608959ED0E0E0D6
:1008F400EA83EFE3EB8302D4EB85FC85EF3FAFEFB4
:10090400FA0729F478D1E6E3F0E097D075C0EF3F19
:10091400AFE7FA0729F46FD1E7E3F0E08ED06CC0BB
:10092400AC85AA2332F46AD19DD16DD171D1EDE2A7
:10093400EC93A885A73010F0E6E0E887188582D00C
:1009440029F06CD1C0D084D26ED1F9CF71D130D21C
:100954005AD110E0E0E0F0E060E87FE364D168D1D0
:100964000AD360F05BD19FD05ED11F5F173228F0AD
:1009740042D1EBE3F0E061D03FC0F1CF103021F47D
:1009840047D1E0E3EC9319C05DD0B9F047D19BD0D7
:1009940036D00ED299D39ADF46D14AD1A7D295D177
:1009A4000E2F36D19CD0F0E039D117D3C7D150D215
:1009B40048D18FD3F6D127D1E7CFE885E030C1F015
:1009C40027D1EEE2EC93E885E150E887EF5F81F010
:1009D40038D169D018D112D178D10E2F19D17FD046
:1009E400F0E02FD1FAD2AAD174D3DBD10CD1EBCF62
:1009F400AE81BF81E0E0EC9388D32D96089528D290
:100A0400A0E0B0E080E09FE30895A0E0B0E080E0E3
:100A14009FE30895FA93EA930895FCDF17C1ED91DB
:100A2400FD913196FE93EE9308952497E0E0E883D8
:100A3400E9830895EE85FF850895ECDFF8CEE88517
:100A4400F9850895E12F1150E0300895AC81BD81FE
:100A54008E819F81E0E0F0E060E271E4F9D1EC8303
:100A6400FD836E837F830895EC85FD856E857F8588
:100A74000895EC81FD816E817F81AC85BD858E8575
:100A84009F8579D20895AC85BD858E859F8508950F
:100A9400EDECFCEC6CEC7DE3DBD1EC87FD876E8741
:100AA4007F873F5F0895E0E0F0E060E271E4D0D139
:100AB4000895EC87FD876E877F870895AC81BD819B
:100AC4008E819F810895EDECFCEC6CEC7DE3089540
:100AD400A885B9851196A887B98711970895E02F3D
:100AE400E05DEC93E02F0895AADF3196E887F9875B
:100AF40008953197BF01A32FEAE00895AE81BF8125
:100B040008952A93EF81F88585DFEB85FC850995A7
:100B14000895FE01E65AFF4F0190F081E02D0895FB
:100B24003497DE01A65ABF4FED93FC930895EF81ED
:100B3400F88570DFEB85FC8509950895FE017696AE
:100B4400EE87FF870895DE01A65ABF4F0D90BC9132
:100B5400A02D0895EA87FB876C877D870895D9DFE8
:100B6400DFCFEA85FB856C857D850895EE87FF8759
:100B7400089560DF4FDF66DE1E2F0895E4DF1496CC
:100B840085D2F4CFE88BF98B6A8B7B8B08950B7F2E
:100B9400ED89EA93FE01E95AFF4F0190F081E02DBF
:100BA40039DFFE01E55AFF4F0190F081E02D0995F0
:100BB40050300895E0E3EA930895E889F9896A8951
:100BC4007B89AA85BB858C859D850895A889B9896B
:100BD4008A899B890895EA93E4CDBFDD80E991E099
:100BE4000197F1F7E7CFB9DD80E991E00197F1F7DB
:100BF400089560D20895EE81FF810CCFE985FA85CE
:100C04006B857C850895E987FA876B877C870895CF
:100C140075DF1196AE83BF8311970895AA81BB81B6
:100C24008C819D810895EA83FB836C837D83089581
:100C3400EA81FB816C817D81A985BA858B859C8540
:100C44000895A985BA858B859C850895E991F991C4
:100C5400309639F080EA9FE00197F1F7A895319733
:100C6400C9F7089530976040704009F070580895AE
:100C7400552342F4503811F4E0FF04C03196691F43
:100C8400791F6BF050E8572711F45F93CFC05F3F93
:100C940031F0660F000C57956795752F08955F9393
:100CA40000200AF0CFC0C8C050E8192E1522880FC2
:100CB400991F9527550F879550E8072E0522660F33
:100CC400771F7527550F67950895689401C0E894B8
:100CD4005F93F2DF703818F07F3F08F4A7C056E145
:100CE400571BAAF4519558300EF4593030F0EFEFF9
:100CF400FFEF6FEF7FE777F91AC077275523B9F035
:100D0400EE0FFF1F661F771F5A95D1F710C0772784
:100D1400583028F0EF2FF62F672F5850F9CF55236E
:100D240031F076956795F795E7955A95D1F70020B8
:100D34000AF445D15F910895689401C0E89430970E
:100D440060407040B1F0002426F0772312F4009440
:100D540036D1172E7EE1112032F07A95EE0FFF1F67
:100D6400661F111CF9CFEF2FF62F612D5F938ADFD9
:100D74005F9108954F93AF01FD01DA01AB01BC010E
:100D8400CA01402D012C142E4F910895EA0FFB1F28
:100D9400681F0895E095F0956095EF5FFF4F6F4FE2
:100DA40008955F9381DF903871F150E8152604C0EF
:100DB4005F937ADF903839F1703821F1572F591B3E
:100DC4002BF112F4D7DFFACF583118F0AA27BB273A
:100DD4008827583028F0AB2FB82F88275850F9CFE0
:100DE400552329F08695B795A7955A95D9F7502D8F
:100DF400512572F0CBDF38F46795F795E795739535
:100E040013F420C0B7DF3EDF5F910895D8F7FBCF1E
:100E1400EA1BFB0B680B51F010F40094BBDF662354
:100E240092F3EE0FFF1F661F7A95CBF7EE27FF278D
:100E3400662777275F910895EFEFFFEF6FE77FEF66
:100E44005F910895EFEFFFEF6FE77FE75F910895FC
:100E54005F932ADF703851F3903841F301240894EA
:100E6400791F23F41CF300203AF3ECCF0F921F9365
:100E74002F933F934F93112722279927689FA0010F
:100E84008F9F302D410D591F6B9F300D411D591FF0
:100E94008E9F27D0BF9F25D06A9F23D0BE9F1DD091
:100EA400AF9F1BD0AE9F110D291F391F491F591F1A
:100EB400E32FF42F652F522F4F913F912F911F91C4
:100EC4000F9066232AF0550FEE1FFF1F661F02C006
:100ED40073954BF2CDDE5F910895100D211D391FDE
:100EE40002C0200D311D491F591F08955F93DCDE98
:100EF400703821F411200AF49FCFA4CF903809F45C
:100F040095CF01240894970B1BF4D4F30020F3CF5E
:100F1400792F1F932F933F934F9311241127222747
:100F240033274427552790E2AE17BF0786074107AA
:100F340030F0AE1BBF0B860B410B089401C08894A4
:100F4400551F221F331F111CAA1FBB1F881F441FBC
:100F54009A9551F7F901612D4F913F912F911F916E
:100F6400662332F0550FEE1FFF1F661F7A9543F27A
:100F74007FDE5F91089599239AF0772342F09717C3
:100F840048F029F4AE17BF07860720F031F0989493
:100F940088940895989408940895189488940895CA
:100FA4007723C2F7971798F3A9F7EA17FB0768079F
:100FB40088F399F3ECCF0024AF0DB01D0895F0959C
:100FC40060957095E195FF4F6F4F7F4F0895FE2F09
:100FD400FF0FFF0B6F2F7F2F08956F2F660F660B88
:100FE400762F0895002498E0AA0F001C0E1A10F41E
:100FF4000E0E01C0A1609A95B9F7EA2FA02D0895AD
:1010040039D0F0DF0EF4E19508953F934F935F9349
:10101400002411244427552730E2AA0FBB1F881F40
:10102400991F001C111C441F551F0E1A1F0A460B42
:10103400570B28F40E0E1F1E461F571F01C0A16038
:101044003A9559F7FD01BC01D001CA015F914F9156
:101054003F910895E894A7FF02C0A1956894E7FD25
:10106400E195C0DFEA2F0EF4E1950895CEDFFD018E
:10107400BC010895E894E7FF02C0E1956894A7FFD6
:1010840004C0A19500F8039400FA0895ED91FC9131
:1010940011970895ED91FD916D917C9113970895A9
:1010A400ED91FD916D917D9108957E936E93FE93E4
:1010B400EE930895E881F9816A817B810895E8833C
:1010C400F9836A837B8308957A936A93FA93EA9304
:1010D4000895182E862F612D192E972F712D1B2EF2
:1010E400BF2FF12D1A2EAE2FE12D089530976040B9
:1010F400704008955A934A933A932A931A930A9301
:1011040008955D814C813B812A811981088108956C
:00000001FF
